:020000040800F2
:10000000E0080020B9190008651C0008671C0008FA
:100010006B1C00086F1C0008731C00080000000027
:10002000000000000000000000000000771C000835
:10003000791C0008000000007B1C00087D1C0008E3
:10004000D3190008D3190008D3190008D3190008E0
:10005000D3190008D3190008D3190008D3190008D0
:10006000D3190008D3190008D3190008D3190008C0
:10007000D3190008D3190008D3190008D3190008B0
:10008000D3190008D3190008D3190008D3190008A0
:10009000D3190008D3190008D3190008D319000890
:1000A000D3190008D3190008D3190008D319000880
:1000B000D3190008D3190008D3190008D319000870
:1000C000D3190008D3190008D3190008D319000860
:1000D000D31900085B1E0008CD1F0008D3190008C3
:1000E000D3190008D3190008D319000800F002F84A
:1000F00000F092F80AA090E8000C82448344AAF130
:100100000107DA4501D100F087F8AFF2090EBAE82D
:100110000F0013F0010F18BFFB1A43F0010318473B
:100120007C7B00009C7B0000103A24BF78C878C11B
:10013000FAD8520724BF30C830C144BF04680C60ED
:10014000704700000023002400250026103A28BF35
:1001500078C1FBD8520728BF30C148BF0B60704739
:100160006E2902F0FC85702903F07C81662907F076
:10017000A382652907F0A082672907F09D82612983
:1001800007F09C8203681B0A28BF41F0800169299F
:1001900002F00A84642902F00784752902F00484BD
:1001A0006F2903F00781782903F04881E92903F0DA
:1001B0009F80E42903F09C80F52903F09980EF29C2
:1001C00003F00481F82903F047810368DB0928BFA5
:1001D00041F08001632903F00E80732903F013803E
:1001E000E32903F08383F32903F088830020704719
:1001F0001FB507F07DF803F04DF904000020002141
:1002000004F0C0FF401C60600020002104F0A4FF47
:10021000E0601FBD10B510BD03F00EFC1146FFF7E6
:10022000E7FF01F0E9FB03F035FC03B4FFF7F2FF51
:1002300003BC01F091FD000000210020674A126814
:1002400042F48032654B1A6000BF644A126802F4BF
:100250000030491C10B9B1F5A06FF6D15F4A1268A1
:1002600012F4003F01D0012000E00020012842D11B
:100270005B4A126842F01002594B1A601A46126823
:1002800022F003021A601A46126842F002021A6053
:10029000524A5268514B5A601A4652685A601A467E
:1002A000526842F480625A601A46526822F47C1204
:1002B0005A601A46526842F4E8125A601A461268A6
:1002C00042F080721A6000BF444A126812F0007F48
:1002D000FAD0424A526822F00302404B5A601A4652
:1002E000526842F002025A6000BF3C4A526802F073
:1002F0000C02082AF9D1704710B5FFF79DFF10BD19
:1003000010B53648006840F00100344908600846DE
:10031000406834490840314948600846006832491D
:1003200008402E4908600846006820F480200860D4
:100330000846406820F4FE0048604FF41F008860C3
:10034000FFF7DAFF4FF000602849086010BD10B5D4
:10035000002100200022214B5B6803F00C0121B139
:10036000042906D0082928D107E0214B214C23601D
:1003700027E01F4B1F4C236023E0184B5B6803F4FE
:100380007010164B5B6803F48032022303EB90403D
:1003900022B9194B4343174C23600DE00F4B5B68A8
:1003A00013F4003F04D0144B4343124C236003E08A
:1003B0000F4B43430F4C236003E00D4B0D4C236068
:1003C00000BF00BF054B5B68C3F303130B4CE15C3C
:1003D000084B1B68CB40074C236010BD0010024047
:1003E000002002400000FFF8FFFFF6FE08ED00E0ED
:1003F00000127A000000002000093D0004000020E7
:1004000036490143364A1160704770B50021002318
:100410000F22C4784CB3324C246804F4E064C4F571
:10042000E0644FEA1421C1F1040322FA01F2447896
:1004300004FA03F1847804EA020444EA01014FEA71
:100440000111284C0678A155047804F01F054FF0DF
:10045000010404FA05F405784FEA65154FF0E0262B
:1004600006EB8505C5F8004109E0047804F01F0596
:100470000124AC401C4D0678761145F8264070BD2D
:100480001A4A0A4002431A4B1A60704741B1194A8E
:10049000126842EA00024FF0E023C3F8102D07E093
:1004A000144A126822EA00024FF0E023C3F8102D2C
:1004B0007047042808D14FF0E021096941F0040198
:1004C0004FF0E022116107E04FF0E021096921F0CF
:1004D00004014FF0E0221161704700000000FA05AE
:1004E0000CED00E000E400E080E100E080FFFF1F91
:1004F00008ED00E010ED00E010B50446CA48844263
:1005000008D10121042000F024FB0021042000F088
:1005100020FB46E0C548844208D10121082000F0B4
:1005200018FB0021082000F014FB3AE0C048844288
:1005300008D10121102000F00CFB0021102000F058
:1005400008FB2EE0BB48844208D10121202000F0A6
:1005500000FB0021202000F0FCFA22E0B648844293
:1005600008D10121402000F0F4FA0021402000F0E1
:10057000F0FA16E0B148844208D10121802000F051
:10058000E8FA0021802000F0E4FA0AE0AC48844256
:1005900007D10121801500F0DCFA0021A01500F040
:1005A000D8FA10BD10B50121084600F0D2FA00219A
:1005B000012000F0CEFA10BD2DE9F04102460025E1
:1005C0000026002000230024002791F803C00CF02F
:1005D0000F0591F803C01CF0100F03D091F802C072
:1005E0004CEA0505B1F800C01CF0FF0F31D01468CB
:1005F00000202BE04FF0010C0CFA00F3B1F800C022
:100600000CEA03069E4220D183004FF00F0C0CFA37
:1006100003F7BC4305FA03FC4CEA040491F803C059
:10062000BCF1280F06D14FF0010C0CFA00FCC2F807
:1006300014C00AE091F803C0BCF1480F05D14FF097
:10064000010C0CFA00FCC2F810C0401C0828D1D3E1
:100650001460B1F800C0BCF1FF0F34DD5468002015
:100660002EE000F1080C4FF0010808FA0CF3B1F885
:1006700000C00CEA03069E4221D183004FF00F0C0C
:100680000CFA03F7BC4305FA03FC4CEA040491F8A6
:1006900003C0BCF1280F05D100F1080C08FA0CF8D2
:1006A000C2F8148091F803C0BCF1480F07D100F1E3
:1006B000080C4FF0010808FA0CF8C2F81080401C32
:1006C0000828CED35460BDE8F0814FF6FF71018059
:1006D000022181700421C170704702460020936896
:1006E0000B4201D0012000E00020704701468868DD
:1006F00080B2704702460020D3680B4201D001202F
:1007000000E0002070470146C86880B27047016170
:100710007047416170470AB1016100E04161704773
:10072000C16070474FF480320A4382618161826107
:1007300082698269704702460020424B18684FF672
:100740008073184040EA021008433E4B186070471F
:100750003D49C8617047F0B50A46002300240021D6
:10076000002500F00046B6F1004F02D1354EF16988
:1007700001E0344E7168C0F3034583B200F44016C3
:10078000B6F5401F08D121F070612E4E766826F034
:1007900070662C4F7E6012E000F48016B6F5801F64
:1007A00006D1032606FA05F4A14341F0706106E084
:1007B000460D360103FA06F6B14341F0706122B1ED
:1007C000460D360103FA06F6314300F00046B6F155
:1007D000004F02D11B4EF16101E01A4E7160F0BD75
:1007E00030B500228B071C0F0F2303FA04F2154BC0
:1007F00008338C1053F824309343124C08348D1076
:1008000044F8253023468C1053F824308C07240FED
:1008100000FA04F423430B4C08348D1044F82530BF
:1008200030BD0A490860704700080140000C0140D3
:10083000001001400014014000180140001C01405C
:10084000002001400000014000002042DC00204266
:10085000DB48006840F00100D9490860084640685C
:10086000D8490840D649486008460068D64908403B
:10087000D34908600846006820F4802008600846D4
:10088000406820F4FE0048604FF41F008860704705
:10089000CB49096821F48031C94A116011460968C1
:1008A00021F480211160B0F5803F03D0B0F5802F96
:1008B0000ED106E0C249096841F48031C04A116096
:1008C00007E0BF49096841F4A021BD4A116000E07A
:1008D00000BF00BF704710B5014600220023002072
:1008E0004A11012A02D1B64C236806E0022A02D13D
:1008F000B34C236A01E0B24C636A01F01F02012489
:1009000094401C4201D0012000E0002010BD70B5D1
:1009100000240025002600BF3120FFF7DCFF06463B
:10092000641CB4F5A06F01D0002EF5D03120FFF784
:10093000D2FF08B1012500E00025284670BD014620
:1009400000209F4A106820F0F80040EAC1001060C3
:1009500070479E490860704702460020984B5868CF
:1009600020F47C1042EA01031843954B586070470D
:1009700096490866704701460020914A506820F069
:1009800003000843506070478D48406800F00C0039
:100990007047014600208A4A506820F0F000084362
:1009A0005060704701460020854A506820F4E0609E
:1009B00008435060704701460020814A506820F487
:1009C000605040EAC1005060704729B17C4A527AB9
:1009D00002437B4B5A7206E0794A527AC343DBB238
:1009E0001A40774B5A727047794908607047014640
:1009F0000020734A506820F440400843506070471C
:100A00000021744A11706E4A82F82010012802D029
:100A1000042808D103E001216E4A117004E0052189
:100A20006C4A117000E000BF00BF70476A4908605F
:100A300070476349096A0143614A11627047674917
:100A40000860704730B500210022002400235C4D6F
:100A50006D6805F00C0121B1042905D0082923D1C6
:100A600005E05F4D056022E05D4D05601FE0544DDF
:100A70006D6805F47012524D6D6805F480340225DE
:100A800005EB92421CB9574D554305600BE04C4DA8
:100A90006D6815F4003F03D0524D5543056002E0E8
:100AA0004F4D5543056002E04D4D056000BF00BF4E
:100AB000434D6D6805F0F00109094B4D6B5C05680D
:100AC000DD4045603E4D6D6805F4E061090A464D24
:100AD0006B5C4568DD408560394D6D6805F460519B
:100AE000C90A414D6B5C4568DD40C560344D6D6899
:100AF00005F44041890B3D4D6B5CC568B5FBF3F5D2
:100B0000056130BD29B12E4A526902432C4B5A610E
:100B100004E02B4A52698243294B5A61704729B13C
:100B2000274A92690243264B9A6104E0244A92695B
:100B30008243234B9A61704729B1214AD26902430B
:100B40001F4BDA6104E01E4AD26982431C4BDA6112
:100B5000704729B11A4AD2680243194BDA6004E09F
:100B6000174AD2688243164BDA60704729B1144A9B
:100B700012690243124B1A6104E0114A126982435E
:100B80000F4B1A6170471A49086070470F49C864D3
:100B900070470B49C87170470948406A40F080703F
:100BA00007494862704701460020054A92680A4298
:100BB00001D0012000E00020704701498872704791
:100BC000001002400000FFF8FFFFF6FE0000424266
:100BD000D800424220100240800442423C0442427B
:100BE00000127A0000093D001400002024000020BB
:100BF0004004424210B50446FC48844209D1012118
:100C00008803FFF7A6FF00214FF48040FFF7A1FF04
:100C100032E0F748844209D101214804FFF7A6FFDA
:100C200000214FF40030FFF7A1FF25E0F148844296
:100C300009D101218804FFF799FF00214FF480209A
:100C4000FFF794FF18E0EC48844209D10121C80461
:100C5000FFF78CFF00214FF40020FFF787FF0BE028
:100C6000E648844208D101210805FFF77FFF0021F3
:100C70004FF48010FFF77AFF10BD2DE9F04786B0E2
:100C800005460E460024A24600BFA1460027B089B3
:100C900000B100BF2F462C8A4CF6FF700440F0884C
:100CA00004432C82AC894EF6F3100440B08831899D
:100CB0000843718908430443AC81AC8A4FF6FF4076
:100CC0000440B0890443AC8201A8FFF7BBFEC748CB
:100CD000874202D1DDF810A001E0DDF80CA0A88960
:100CE00010F4004F08D00AEBCA0000EB0A1031687C
:100CF0004900B0FBF1F807E00AEBCA0000EB0A106C
:100D000031688900B0FBF1F86420B8FBF0F0040111
:100D10002009642101FB1089A88910F4004F08D034
:100D2000322000EBC900B0FBF1F000F007000443F3
:100D300008E0322000EB09106421B0FBF1F000F074
:100D40000F0004432C8106B0BDE8F0874FF4165124
:100D5000016000218180C18001810C21418100213D
:100D60008181704710B502460020108A4FF2FF03C0
:100D700018400B884C8823438C882343CC8823431A
:100D80001843108210BD0021018041808180C18004
:100D9000704721B1828942F40052828104E0828945
:100DA0004DF6FF731A4082817047F0B50346002468
:100DB000002600250020A1F510676A3F00D100BF82
:100DC0001846C1F3421401F01F06012707FA06F581
:100DD000012C01D10C3004E0022C01D1103000E0D4
:100DE00014301AB107682F43076002E00768AF4369
:100DF0000760F0BD10B51AB1838A0B43838204E00B
:100E0000838ACC43A4B22340838210BD028A4FF66A
:100E1000F0731A400282028A0A4302827047828972
:100E20004FF2FF731A40828182890A4382817047A0
:100E300021B1828942F00202828104E082894FF668
:100E4000FD731A4082817047028A4FF6DF731A40A1
:100E50000282028A0A430282704721B1028A42F466
:100E60008042028204E0028A4BF6FF731A4002823B
:100E70007047C1F308028280704701468888C0F33A
:100E800008007047818941F0010181817047028B20
:100E9000D2B20283028B42EA012202837047028BA4
:100EA00002F47F420283028B0A430283704721B11E
:100EB000828A42F02002828204E0828A4FF6DF7347
:100EC0001A408282704721B1828A42F010028282E7
:100ED00004E0828A4FF6EF731A408282704721B194
:100EE000828A42F00802828204E0828A4FF6F77317
:100EF0001A408282704721B1828942F40042828185
:100F000003E08289C2F30E028281704721B1828A96
:100F100042F40062828204E0828A4FF2FF731A4038
:100F200082827047828A4FF6FB731A408282828ADD
:100F30000A438282704721B1828A42F00202828291
:100F400004E0828A4FF6FD731A408282704702469F
:100F50000020B1F5007F00D100BF13880B4201D003
:100F6000012000E00020704701F40072B2F5007F1C
:100F700000D100BFCA430280704770B5024600240A
:100F8000002300250020A1F510666A3E00D100BFB5
:100F9000C1F3421501F01F03012606FA03F3012DE8
:100FA00002D19689334006E0022D02D1168A3340E1
:100FB00001E0968A33400C12012606FA04F41688E2
:100FC000344013B10CB1012000E0002070BD10B519
:100FD00000220023A1F510646A3C00D100BF0A1270
:100FE00001249440A3B2DC43048010BD00380140CA
:100FF0000044004000480040004C004000500040C9
:1010000001460020FF4A106800F0380008431060D5
:101010007047FC49096821F00801FA4A116011463D
:101020000968014311607047F649096821F0100111
:10103000F44A116011460968014311607047F24893
:10104000F0494860F14848607047EF48ED49486012
:10105000EE4848607047EB48006940F08000E9497D
:1010600008617047E748006940F08000E549086181
:1010700070470420E349C96801F00101012901D149
:1010800001200EE0DF49C96811F0040F01D00220F1
:1010900007E0DC49C96811F0100F01D0032000E01F
:1010A0000420704700B502460423FFF7E2FF034621
:1010B00003E0FFF7DEFF0346521E012B01D1002A99
:1010C000F7D102B90523184600BD30B50446042502
:1010D0004FF43020FFF7E6FF0546042D17D1C9482D
:1010E000006940F00200C749086108464461006990
:1010F00040F0400008614FF43020FFF7D3FF054671
:10110000C048006941F6FD710840BE4908612846A3
:1011100030BD10B504244FF43020FFF7C3FF044660
:10112000042C16D1B748006940F00400B5490861A5
:101130000846006940F0400008614FF43020FFF796
:10114000B1FF0446AF48006941F6FB710840AD4964
:101150000861204610BD00B502460423FFF789FF51
:10116000034603E0FFF785FF0346521E012B01D122
:10117000002AF7D102B90523184600BD10B5042492
:101180004FF43020FFF7E7FF0446042C16D19D48AA
:10119000006940F004009B4908610846006940F07E
:1011A000400008614FF43020FFF7D5FF0446954812
:1011B000006941F6FB71084092490861204610BD64
:1011C00000209049C96911F0020F01D0012000E010
:1011D0000020704730B5A5250424FFF7F1FF00B1CA
:1011E00000254FF43020FFF75DFF0446042C3BD16F
:1011F000854884498860854888600846006940F0D1
:10120000200008610846006940F0400008614FF482
:101210003020FFF747FF0446042C1CD179480069B1
:1012200041F6DF710840774908610846006940F0DF
:1012300010000861764805804FF40050FFF732FF38
:101240000446052C10D06F48006941F6EF71084044
:101250006C49086108E0052C06D06A48006941F62F
:10126000EF71084067490861204630BDF0B504467B
:101270000D4604260027F002FFF714FF0646042E51
:1012800022D16048006940F001005E490861258074
:10129000F002FFF707FF0646042E0ED1A71C280C0C
:1012A0003880F002FFF7FEFE06465648006941F618
:1012B000FE7108405349086106E05248006941F652
:1012C000FE7108404F4908613046F0BD70B50446D4
:1012D0000D460426F002FFF7E5FE0646042E11D166
:1012E0004848006940F00100464908612580F00245
:1012F000FFF7D8FE06464348006941F6FE710840F4
:1013000040490861304670BD70B505460E4604245C
:10131000E002FFF7C7FE0446042C17D13A483949CA
:1013200088603A4888600846006940F0100008610B
:101330002E80E002FFF7B6FE0446052C06D03148A9
:10134000006941F6EF7108402E490861204670BDE2
:101350002DE9F04304464FF6FF763746B046B146D6
:101360000425E443E6B2C4F30727C4F307484FEA71
:101370001469E802FFF796FE0546042D3ED1224887
:1013800020498860214888600846006940F01000C4
:101390000861FF2E06D01F4806804FF40050FFF76B
:1013A00081FE0546042D08D1FF2F06D01A4807807C
:1013B0004FF40050FFF776FE0546042D09D1B8F131
:1013C000FF0F06D01548A0F80C88E802FFF76AFE68
:1013D0000546042D09D1B9F1FF0F06D00F48A0F83A
:1013E0000E98E802FFF75EFE0546052D06D005487B
:1013F000006941F6EF710840024908612846BDE8DE
:10140000F08300000020024023016745AB89EFCD47
:1014100000F8FF1F08F8FF1F0AF8FF1F00F0FF1F6A
:1014200030B5054604244FF43020FFF73BFE044658
:10143000042C41D15F486049886060488860084654
:10144000006940F0200008610846006940F0400053
:1014500008614FF43020FFF725FE0446042C22D10A
:101460005548006941F6DF71084053490861084654
:10147000006940F0100008611DB10020504908804B
:1014800002E0A5204E4908804FF43020FFF70AFE05
:101490000446052C10D04848006941F6EF71084019
:1014A0004549086108E0052C06D04348006941F62B
:1014B000DF71084040490861204630BDF0B505465F
:1014C0000E46174604243B483B4988603B488860E9
:1014D000E002FFF7E7FD0446042C19D13648006905
:1014E00040F010003449086147F0F80030432843C9
:1014F000344908804FF40050FFF7D4FD0446052C12
:1015000006D02D48006941F6EF7108402A4908616C
:101510002046F0BD2848C069800870472648006A08
:10152000704700202449096811F0200F01D00120E4
:1015300000E00020704729B11F4A126902431E4B88
:101540001A6104E01C4A126982431B4B1A617047FE
:1015500001460020012908D1174AD26912F0010F73
:1015600001D0012008E0002006E0134AD2680A42B8
:1015700001D0012000E0002070470F49C86070478B
:1015800004200D49C96801F00101012901D10120A0
:101590000EE00949C96811F0040F01D0022007E0EC
:1015A0000549C96811F0100F01D0032000E00420A4
:1015B000704700002301674500200240AB89EFCD52
:1015C00000F8FF1F02F8FF1F10B50446F6488442DA
:1015D00009D101214805FFF7C9FA00214FF4001095
:1015E000FFF7C4FA08E001218805FFF7BFFA0021E0
:1015F0004FF48000FFF7BAFA10BD2DE9F04385B033
:1016000004460D460026B1460427DFF8A083A688CD
:101610004FF6C0710E406846FFF714FADDF80880F7
:10162000E348B8FBF0F01FFA80F946EA0906A68005
:1016300020884FF6FE71084020800026DD4928688A
:1016400088420CD828684000B8FBF0F087B2042F1D
:1016500000DA04273E4309F10100208427E0E888EE
:10166000A0F53F41FF3906D1286800EB4000B8FBE8
:10167000F0F087B209E0286800EBC00101EB001030
:10168000B8FBF0F087B247F480473805000D01D170
:1016900047F0010747F4004006434FF4967009FBFA
:1016A00000F04FF47A7190FBF1F0401C2084A68387
:1016B000208840F00100208026884FF6F5310E404A
:1016C000A8886989084306432680A8892989084390
:1016D000208105B0BDE8F08341F28831016000212E
:1016E00081804BF6FF71C1800021018141814FF45F
:1016F00080418181704721B1028842F0010202805D
:1017000004E002884FF6FE731A400280704721B150
:10171000828842F40062828004E082884FF2FF7384
:101720001A408280704721B1828842F480528280C0
:1017300004E082884EF6FF731A408280704721B120
:10174000028842F48072028004E002884FF6FF6350
:101750001A400280704721B1028842F40072028070
:1017600004E002884FF6FF531A400280704721B10F
:10177000028842F48062028004E002884FF6FF3360
:101780001A40028070470A46002181894FF6017392
:10179000194002F0FE0319438181704721B182890B
:1017A00042F00102828104E082894FF6FE731A4002
:1017B0008281704721B1028842F04002028004E039
:1017C00002884FF6BF731A400280704710B51AB1F5
:1017D00083880B43838004E08388CC43A4B22340F6
:1017E000838010BD018270470146088AC0B27047ED
:1017F00012B141F0010102E04FF6FE73194001827F
:1018000070470246002313460B441888704721B1E5
:10181000028842F40042028003E00288C2F30E0212
:1018200002807047B1F5006F04D1028842F4006273
:10183000028004E002884FF2FF731A400280704772
:10184000B1F5005F04D1028842F40052028004E046
:1018500002884DF6FF731A400280704721B102885A
:1018600042F48052028004E002884EF6FF731A4070
:1018700002807047B1F5006F04D1028842F4006223
:10188000028004E002884FF2FF731A400280704722
:1018900021B1028842F02002028004E002884FF663
:1018A000DF731A40028070470146088B00127047B0
:1018B00021B1028842F01002028004E002884FF653
:1018C000EF731A400280704721B9028842F080020B
:1018D000028004E002884FF67F731A40028070474E
:1018E000B1F5804F05D0828B4BF6FF731A4082838F
:1018F00003E0828B42F480428283704770B50246D7
:101900000024002500230020958A138B1B0445EA40
:10191000030626F07F4404EA01068E4201D101202D
:1019200000E0002070BD10B5014600200023002219
:101930008B8A0A8B120443EA020424F07F4010BD14
:1019400030B503460020002400221A460C0F21F077
:101950007F410CB1143201E0090C183215680D42B8
:1019600001D0012000E0002030BD002221F07F42A4
:10197000D3438382704730B5024600200023948809
:1019800001F0E06504EA154321F07F41948A0C429E
:1019900002D00BB1012000E0002030BD002221F078
:1019A0007F42D343838270470054004000127A0084
:1019B00040420F00A08601000948804709480047BF
:1019C000FEE7FEE7FEE7FEE7FEE7FEE7FEE7FEE7EF
:1019D000FEE7FEE704480549054A064B704700004C
:1019E00001030008ED000008E0020020E0080020EC
:1019F000E0040020E00400209EB0834BD3E9010204
:101A00001968DB68CDE91123CDE90F107E4910314B
:101A100003C9CDE90D0114227B49183108A801F052
:101A2000EAF87A481A907A481B907A481C90642009
:101A30008DF8580000F059F900F09EFC4FF4E130A9
:101A400000F073FA002201217348FEF764FE64205F
:101A500000F02BF9012211466F48FEF75CFE0022D0
:101A600002216D48FEF757FE00F01BFB16A800F0A0
:101A7000A7FC8046B8F1000F04D0414667A000F0F3
:101A800035FFB8E016A800F0F3FC8046B8F1000F6F
:101A900004D0414661A000F029FFACE016A800F098
:101AA000C9FD8046B8F1000F04D041465BA000F0AC
:101AB0001DFFA0E016A800F069FE8046B8F1000FF7
:101AC00004D0414655A000F011FF94E000BF322041
:101AD0001C99884715A916A800F064FC8046B8F147
:101AE000000F04D041464DA000F000FF83E09DF8B8
:101AF000540010F0070FEAD100BF0FE032201C990C
:101B0000884715A916A800F04DFC8046B8F1000FD3
:101B100004D0414641A000F0E9FE6CE09DF854007D
:101B200000F007000128E9D114A916A800F03AFE38
:101B30008046B8F1000F04D0414638A000F0D6FE30
:101B400059E0149802F018FA83460DAA59461498E1
:101B500002F0EAF913900DAA5946149802F04CF9D4
:101B600081460FAA3449139802F058F8824608A912
:101B7000149802F071F900BF3048C0F80090C0F826
:101B800008A02F49584604F0ABFF2C49C8601398B1
:101B900004F03EFE04460D462849886804F038FEED
:101BA00006460F462549C86804F032FECDE90267B3
:101BB000CDE90445CDE906012048036800930B46B2
:101BC00020A0069A00F092FE0FE032201C99884770
:101BD00015A916A800F0E6FB8046B8F1000F04D066
:101BE00041460EA000F082FE05E09DF8540010F082
:101BF000070FEAD181E705E017A000F077FE642027
:101C000000F053F8F8E70000D4790008D721000865
:101C1000E1200008AB1C0008000C01404572726F07
:101C2000722025642C2065786974696E6720707253
:101C30006F6772616D210A0000004040AC00002017
:101C400000007A44412C25352E30662C25642C2545
:101C50002E32662C25662C00656E64202D2D2D2DD0
:101C60002D2D0A00704700BFFEE700BFFEE700BF52
:101C7000FEE700BFFEE7704770477047704700EB14
:101C8000C001C9004FF0E02251610021916105219E
:101C9000116100BF4FF0E021096911F4803FF9D0D4
:101CA00004214FF0E0221161704700B5034603E0C4
:101CB0004FF47A70FFF7E3FF1800A3F101018BB234
:101CC000F6D100BD10B5044603E04FF47A70FFF77B
:101CD000ECFF2000A4F101018CB2F6D110BD10B5CB
:101CE0004FF4A060FEF78CFB10BD10B5FEF7B0FD01
:101CF0004FF48030FEF7CCFDFEF709FE0446012CC0
:101D000024D14FF4E0110004FEF726FE0020FEF778
:101D100040FEA002FEF746FE0020FEF74CFE022029
:101D2000FFF76EF91020FFF77FF90120FEF720FE84
:101D300000BF3920FEF7CFFD0028FAD00220FEF7C1
:101D40001AFE00BFFEF720FE0828FBD1012144F255
:101D50007C00FEF7E4FE10BD00BF704700BF704777
:101D600000BFBB4A128812F0400FFAD0C2B2B94B82
:101D70001A8070470FB410B5B4B0002437A8009093
:101D8000C92101A8009B369A00F096FD0EE020467E
:101D9000621CD4B201AA115CAF48FFF76AF800BF19
:101DA0004021AD48FFF7D3F80028F9D0C82C04DA59
:101DB00001A800F001FFA042E9D834B010BC5DF8E2
:101DC00014FB10B586B00446012144F20400FEF76E
:101DD000A6FE4FF40070ADF8140003208DF8160035
:101DE00018208DF8170005A99C48FEF7E5FB4FF475
:101DF0008060ADF8140004208DF8170005A99748FD
:101E0000FEF7DAFB25208DF8000003208DF8010095
:101E10008DF8020001208DF803006846FEF7F5FA00
:101E200001940020ADF80800ADF80A00ADF80C00F0
:101E3000ADF810000C20ADF80E0001A98648FEF7A1
:101E40001CFF012240F225518348FEF7AEFF01211D
:101E50008148FEF79EFF06B010BD10B540F2255137
:101E60007D48FFF78AF830B37B48FFF706F8C4B225
:101E700021467BA000F03AFD7A48008810F4004F1C
:101E80002BD17848008810F4804F0CD00A2C03D056
:101E900000207449088020E07248008840F4004027
:101EA0007049088019E00D2C06D16E48008840F476
:101EB00080406C49088010E06A480088C0F30D003B
:101EC00069490C5467480088401C664908800846E8
:101ED0000088C72801DD0020088010BD0FB410B5B0
:101EE000B4B0002437A80090C92101A8009B369AFD
:101EF00000F0E2FC0EE02046621CD4B201AA115CA4
:101F00005348FEF7B6FF00BF40215148FFF71FF8C6
:101F10000028F9D0C82C04DA01A800F04DFEA04238
:101F2000E9D834B010BC5DF814FB10B586B0044697
:101F300001210420FEF7F3FD01214804FEF7FCFD1A
:101F40000820ADF8140004208DF8170005A94348B7
:101F5000FEF732FB0420ADF8140003208DF81600C4
:101F600018208DF8170005A93C48FEF725FB0194C1
:101F70000020ADF80800ADF80A00ADF80C00ADF88F
:101F800010000C20ADF80E0001A93148FEF775FED7
:101F9000012240F225512E48FEF707FF01212C486F
:101FA000FEF7F7FE4FF4E060FEF72AFA26208DF8E0
:101FB000000003208DF801008DF8020001208DF84B
:101FC00003006846FEF721FA06B010BD10B540F2D6
:101FD00025511F48FEF7D1FF30B31D48FEF74DFFD6
:101FE000C4B221461EA000F081FC2048008810F4F5
:101FF000004F2BD11D48008810F4804F0CD00A2CC4
:1020000003D000201949088020E01848008840F4D7
:1020100000401649088019E00D2C06D113480088AD
:1020200040F480401149088010E010480088C0F357
:102030000D000F490C540D480088401C0B490880C6
:1020400008460088C72801DD0020088010BD000078
:1020500000440040044400400038014000080140B2
:102060002563000028000020BC0000202A0000207A
:102070008401002008B501211C20FEF750FD01213C
:102080004805FEF759FDC020ADF800001C208DF872
:10209000030003208DF802006946B248FEF78CFA6F
:1020A00008BD1FB5FFF7E6FF0020ADF804004BF6B2
:1020B000FF70ADF80600C020ADF808004FF4806056
:1020C000ADF80A000001ADF80C00A7480090694681
:1020D000A648FFF792FA0121A448FFF70CFB1FBDA9
:1020E0002DE9F04105460F4614461E4601219F4842
:1020F000FFF725FB00BF9E499C48FFF7FFFB002828
:10210000F9D0002229469948FFF772FB00BF994990
:102110009648FFF7F3FB0028F9D039469348FFF7BC
:1021200061FB00BF9349891C9048FFF7E7FB00283B
:10213000F8D00CE021788D48FFF754FB641C00BFF9
:102140008C49891C8948FFF7D9FB0028F8D030005A
:10215000A6F10101CEB2EDD101218448FFF7FBFACF
:102160000020BDE8F08170B504460E4615460121F9
:102170007E48FFF7E4FA00BF7D497C48FFF7BEFBCD
:102180000028F9D0002221467848FFF731FB00BF34
:1021900078497648FFF7B2FB0028F9D031467348FA
:1021A000FFF720FB00BF7349891C7048FFF7A6FBAF
:1021B0000028F8D029466D48FFF714FB00BF6D4991
:1021C000891C6A48FFF79AFB0028F8D0012167486C
:1021D000FFF7C1FA70BD2DE9F04106460F461546DE
:1021E0001C4600BF4FF400316048FFF7A9FB0028F0
:1021F000F8D101215D48FFF7A2FA00BF5C495B48B6
:10220000FFF77CFB0028F9D0002231465748FFF742
:10221000EFFA00BF57495548FFF770FB0028F9D087
:1022200001215248FFF767FA39465048FFF7DAFABA
:1022300000BF5049891C4D48FFF760FB0028F8D0CB
:1022400001214A48FFF77BFA00BF49494748FFF799
:1022500055FB0028F9D0012231464448FFF7C8FA5F
:1022600000BF4349491C4148FFF748FB0028F8D00C
:1022700016E0012C07D100213C48FFF778FA012134
:102280003A48FFF768FA3A493F313848FFF736FBDA
:1022900030B13648FFF7A8FA28706D1C601EC4B232
:1022A000002CE6D101213148FFF761FA0020BDE89A
:1022B000F08170B504460D4600BF4FF400312B4845
:1022C000FFF73EFB0028F8D101212848FFF737FA35
:1022D00000BF27492548FFF711FB0028F9D000224D
:1022E00021462248FFF784FA00BF22491F48FFF722
:1022F00005FB0028F9D001211C48FFF7FCF929460D
:102300001A48FFF76FFA00BF1A49891C1748FFF7F0
:10231000F5FA0028F8D001211448FFF710FA00BFA1
:1023200013491248FFF7EAFA0028F9D001222146A2
:102330000E48FFF75DFA00BF0D49491C0B48FFF737
:10234000DDFA0028F8D000210848FFF710FA012133
:102350000648FFF700FA0548FFF746FA06463046FA
:1023600070BD0000000C0140400D0300005400400F
:10237000010003008200070008B501211C20FEF7C0
:10238000CEFB0F20ADF8000010208DF803000320D5
:102390008DF8020069460248FEF70EF908BD0000FC
:1023A000000C0140F8B504460D46207801236A462A
:1023B00094212669B0479DF8000028700020F8BDE0
:1023C000FEB504460025002001900090002600BFC5
:1023D000207801236A4693216769B84745B20DB159
:1023E0000320FEBDC820A169884701A92046FFF748
:1023F000D9FF05460DB12846F3E7701C86B29DF85B
:10240000040010F0800F02D0B6F57A7FE0DBB6F55D
:102410007A7F01DB0220E4E72078022302AA002170
:102420002769B84745B20DB10320DAE79DF80900E6
:102430009DF8081040EA0120608020780623221DC4
:1024400020212769B84745B20DB10320C9E760884C
:10245000A0F50C50103806D1FE48FF490860FF482F
:10246000FF49086001E00420BBE700BF0020B8E797
:102470002DE9F04F8DB0064600200B900A90F848E9
:10248000006818B905200DB0BDE8F08F3078012341
:102490000AAAB7213469A047707A03F0EFFB04461B
:1024A0000022F04B03F014F8CDE90001307A03F07C
:1024B000E5FB04460022EC4B03F00AF88046DDE918
:1024C000002303F067FC82460022E84B03F060FE25
:1024D000CDE90401F07903F0D1FB04460D46B07953
:1024E00004F00EFD019004F093F980460022E04BC9
:1024F00003F050FC824622462B4602F0E9FF81F0B1
:102500000041CDE90201DDE9042303F043FC002290
:10251000D84BCDE9060103F029F9CDE9080102F015
:1025200047FE0746384604F073F904460022134676
:1025300003F0F4FB08D3384604F06AF9044600229D
:10254000CD4B03F0CCFD01D201209CE7384604F0CE
:1025500063FC000A8DF82800384604F05DFCC0B228
:102560008DF82900BE4A1268537ABD4A1268117A62
:1025700030780AAA7469A047B94D2D686B7CB84DB4
:102580002D686A69B64D2D68297C30787469A0473A
:10259000B34D2D686B7EB24D2D68EA69B04D2D6844
:1025A000297E30787469A047AD4D2D6895F82130AB
:1025B000AB4D2D686A6AAA4D2D6895F820103078C9
:1025C0007469A04730780123A54974690A68521DCF
:1025D0009321A0471420B16988470AA93046FFF724
:1025E000E1FE0B909DF8280000F08000802801D1CA
:1025F000022048E79A4A126892F82930984A1268ED
:1026000092F8281030780AAA3469A0470B9808B1CC
:10261000032038E79DF828009DF8291041EA0020A2
:1026200070819DF82A009DF82B1041EA0020B081AE
:10263000002028E72DE9F04F8BB0064600200A90D5
:102640008548006818B905200BB0BDE8F08F3078D8
:1026500001230AAAB7213469A047707A03F00EFB60
:1026600004460022854B03F093FD80468946307A6C
:1026700003F004FB044600227B4B02F029FF424694
:102680004B46CDE9000103F085FB82460022774BE3
:1026900003F07EFDCDE90401F07903F0EFFA044682
:1026A0000D46B07904F02CFC019004F0B1F882469C
:1026B00000226F4B03F06EFB804622462B4602F051
:1026C00007FF81F00041CDE90201DDE9042303F0B9
:1026D00061FB0022674BCDE9060103F047F8CDE925
:1026E000080102F065FD0746384604F091F80446FB
:1026F0000022134603F012FB08D3384604F088F892
:10270000044600225C4B03F0EAFC01D201209BE767
:10271000384604F081FB000A8DF82800384604F0A2
:102720007BFBC0B28DF829004B4A1268537A4A4AA3
:102730001268117A30780AAA7469A047464D2D684C
:102740006B7C454D2D686A69434D2D68297C307836
:102750007469A047404D2D686B7E3F4D2D68EA6936
:102760003D4D2D68297E30787469A0473A4D2D681B
:1027700095F82130384D2D686A6A374D2D6895F8E7
:10278000201030787469A04700205DE770B50446DA
:1027900020780123304965690A68521D9321A847B2
:1027A000002070BD2DE9F0478AB006460F46002094
:1027B00008908046284A126892F82930264A126802
:1027C00092F82810307808AA3469A0479DF82000B4
:1027D0009DF8211041EA00283078012308AAB7218A
:1027E0003469A0479DF8200018B106200AB0BDE862
:1027F000F0877189A8EB010003F01CFA044600225F
:10280000134603F08BFA02D21D48386051E0B189BB
:10281000A1EB080003F00EFA04460022134603F071
:102820007DFA02D81748386043E0B189A1EB08006F
:1028300003F000FA81468A467189A8EB010003F093
:10284000F9F9CDE90201707903F018FA0446002283
:102850000D4B1BE044000020A80000207400002065
:10286000A4000020000054400000844000401F41AC
:1028700000007040007067410000B04000C082401E
:102880006F12833AF902155000408F4003F082FA2C
:10289000CDE90001DDE9022303F07CFA4A46534604
:1028A000CDE9040102F062FFCDE9060102F080FCEF
:1028B000386000209AE770477CB515461A460C0030
:1028C000009001D02044401E074B7B446946019094
:1028D000284600F066FC05461CB10020694600F061
:1028E00073FC28467CBD0000050900000FB40449B4
:1028F00010B503AA029800F08BFC10BC5DF814FB25
:102900002C00002070B50446856900683026C10699
:1029100000D42026C00708D070BDD4E9012130467C
:102920009047206A00F1010020626D1EF5D570BD50
:1029300070B5044685690068C00708D170BDD4E948
:10294000012120209047206A00F1010020626D1EC5
:10295000F5D570BD70B505460C46012A05D028682E
:10296000800600D5EA69002302E0012305E05B1C34
:10297000934202D2E05C0028F9D1A869E618C01A97
:10298000A861286A184428622846FFF7BBFF04E0C4
:10299000D5E9012114F8010B9047B442F8D3284639
:1029A000FFF7C6FF70BD00002DE9F041804600260C
:1029B00010687529414615A512D000F064F9002869
:1029C00003DAC0F1000012A508E0D8F800108A0769
:1029D00001D510A502E0490704D50FA5012601E0A5
:1029E00000F05AF9002408F1240704E000F046FD45
:1029F00030313955641C0028F8D133462A46214627
:102A00004046BDE8F04100F050B900000000000071
:102A10002D0000002B000000200000002DE9F05FD9
:102A20004FF0000B054689464FF0010AC0F820B070
:102A30002846E968884798B3252806D0D5E90121BA
:102A40009047286A401C2862F2E75A4F00267F44CC
:102A50002846E96888472028044608DB312C06D23E
:102A600007EB040010F8200C08B10643F0E7B007AC
:102A700001D526F00406C5F81CB00027C5F818B02B
:102A80002A2C0ED05246A4F130010A292ED2BAF1D6
:102A9000000F2BD0924605EB8708C8F818101AE0F3
:102AA00084E059F8041B284605EB87029161E96828
:102AB0008847012F04461BD1E869002823DA26F055
:102AC000200620E0D8F8180000EB800004EB40005E
:102AD0003038C8F818002846E9688847A0F1300166
:102AE00004460A2902D2BAF1000FEBD1012F0AD015
:102AF0002E2C08D12846E96888477F1C0446022FFF
:102B000046F02006BCDBA869002803DA404246F004
:102B10000106A861F00701D026F010066C2C0AD03F
:102B2000682C08D04C2C34D06A2C32D0742C30D085
:102B30007A2C2ED015E0E968274628468847B84207
:102B4000044609D180206C2F00D0C000E9680643FC
:102B500028468847044604E040206C2F00D08000BF
:102B600006431CB3A4F14100192802D8203446F4CE
:102B700000664A46214628462E604E46FDF7F0FA8A
:102B800090B101280DD0F61D26F0070000F10809CC
:102B90004EE74C2C5846D9D080206A2CD6D0002045
:102BA000D4E706F1040943E7204647E7286ABDE871
:102BB000F09F0000AE4F000010B5431C02E010F87B
:102BC000011B71B18107FAD14FF0013202C88C1A92
:102BD0008C4314EAC211F9D0C01A0A0603D0C01EF1
:102BE00010BDC01A10BD0A0401D0801E10BD09021C
:102BF000FCD0401E10BD10B5203AC0F00B80B1E8EB
:102C00001850203AA0E81850B1E81850A0E8185021
:102C1000BFF4F5AF5FEA027C24BFB1E81850A0E82A
:102C2000185044BF18C918C0BDE810405FEA827C44
:102C300024BF51F8043B40F8043B08BF7047D2075B
:102C400028BF31F8023B48BF11F8012B28BF20F8FC
:102C5000023B48BF00F8012B704770477047704730
:102C60007047000001487047704700BF50020020C5
:102C700010B500F015FC006810BD10B5044600F05A
:102C80000FFC046010BD09684A0501D540B27047C9
:102C9000C905FCD500B2704709684A0501D5C0B224
:102CA0007047C905FCD580B270472DE9F0470D4645
:102CB00004469246994600F124080168880604D526
:102CC000E06921F01001216000E001200027A84206
:102CD00001DDA0EB0507A16907EB050202EB03008C
:102CE000A1EB0000A0612068C00602D42046FFF7D7
:102CF00009FE002608E0D4E901211AF806009047F1
:102D0000206A401C761C20624E45F4DB2068C00619
:102D10000AD52046FFF7F6FD06E0D4E90121302070
:102D20009047206A401C2062381EA7F10107F4DC9E
:102D300007E0D4E9012118F805009047206A401CFB
:102D40002062281EA5F10105F3DC2046FFF7F0FD07
:102D500021680220090600D40120BDE8F08711682F
:102D60000268006A530501D508700BE0D30501D550
:102D7000088007E0130603D5C217C1E9000201E08D
:102D8000520608600120704770472DE9FF4F0C463E
:102D90001E464FF0FF3789B0D2E90001DDF85880B8
:102DA00006908946C1F30A5505B93D4600210846FB
:102DB00004F06AFCB9F1000F00F4400005DA00EB02
:102DC00080004FF4400101EA50004FEA905ABAF1F6
:102DD000010F00DDBA46069850EA49002CD044F6AF
:102DE0001050A5F2FF354543CAF1000008902F149A
:102DF000B8F1000F39D07542089A291E00DC5246FE
:102E000000DA694203A800F07DFD0699484601F00A
:102E100013F98DE80700A0F500501F3800900398C3
:102E2000002D25DD42F21F015246084403A90390FC
:102E3000684601F072FB24E0B8F1010F4FF000008A
:102E400001D1F24307E0302101E02154401CB0429F
:102E5000FBDB30460022002121540999C1F808808B
:102E6000C1E900200DB0BDE8F08FBD1B6D1CC3E7AC
:102E7000A0F5005052461F3803A90390684601F0A0
:102E800060FB8DE807000004000C03D04FF0FF301A
:102E9000410800E01046B8F1000F03D00022009274
:102EA00015461FE0751E06D400F000FB02F130024B
:102EB00062556D1EF8D5B3460122084302D00022A8
:102EC0007F1C04E02078302801D100227F1E002AD8
:102ED00007978DD01DE0112D07DA00F0E7FA3032A8
:102EE00062556D1C50EA0102F5D108430FD1002153
:102EF000681E05E0235C625C6354491C2254401E3A
:102F00008142F7DBAB46A81B401E079001E000980A
:102F100048B1002004F80B000998079AC0F808800F
:102F2000C0E9002B9EE711264FF0000860E72DE96D
:102F3000F04F88460446D21D22F0070191B0D1E936
:102F40000001CDE90C0101F032FC02460D98C10FE1
:102F50004FF02D0006D121682B208B0702D42020B2
:102F600000EAC100032A834601D0072A05DB034695
:102F70004146204600F072FC0AE12068800601D537
:102F8000E76900E006271120B8F1650F06D0B8F117
:102F9000660F11D0B8F1670F67D128E00023112F19
:102FA000009300DA781C03460CAA01A909A8FFF7D0
:102FB000ECFE00267D1C3FE001234FF000490CAAE7
:102FC00001A909A800933B46FFF7DFFEDDE90A509F
:102FD000002620B9099907F1010001EB0005781BD3
:102FE00002D47D1CC0F1FF36A5EB070A3DE0012F9E
:102FF00000DA01270023112F009300DC3846034636
:103000000CAA01A909A8FFF7C0FE20683D460026CA
:1030100000070BD40A98A84200DA054601A8012D42
:1030200004DD411911F8011C302909D00998B84272
:1030300002DA10F1040F05DA4FF0010A099813E0E3
:103040006D1EECE7002802DC2D1A064405E0401C4A
:10305000A84202DD099D05F101050998A0EB0600D3
:1030600000F1010A4FF0004081462068000703D4B8
:10307000AA4501DB4FF0FF3A0020B9F1004F0DF1F6
:103080003F078DF83F0024D04FF002082B20B9F104
:10309000000F00900BDA2D20C9F10009009006E026
:1030A000484600F0EBF93031814607F8011DB8F1D0
:1030B0000001A8F10108F3DCB9F1000FF0D100988C
:1030C00007F8010D21684520090500D4652007F89F
:1030D000010D0EA8A0EB070000F107085FEA0B0046
:1030E00000D0012000EB050101EBEA7101EB0800C3
:1030F000A169A1EB0000A0F10100A0612068C00659
:1031000002D42046FFF7FEFB5FEA0B0006D0D4E9AD
:1031100001219047206A00F1010020622068C0066A
:1031200021D52046FFF7EEFB1DE0002E05DB0A98B7
:10313000B04202DD01A8805D00E03020D4E9012129
:103140009047206A761C401CBAF1010A20620AD11D
:1031500000F0A0F9C0680168405CD4E90121904703
:10316000206A401C2062281EA5F10105DDDC07E075
:10317000D4E9012117F8010B9047206A401C206216
:10318000B8F10001A8F10108F2DC2046FFF7D0FBFE
:10319000022011B067E6000001694A1C026108784C
:1031A000704700B58FB0CDE9013100210591054987
:1031B0007944CDE9031011466846FFF72FFC0FB0A4
:1031C00000BD0000E5FFFFFF0A6802F8010B0A607E
:1031D0007047D1E900239A4202D2531C0B60107051
:1031E000704710B5436913B1AFF3008001E0FFF7FA
:1031F000B1FB012010BD126800F124010A70002209
:103200004A700122EDE711684FF0FF32E9E7000054
:10321000074B70B50C467B44FFF7C3FF05462046BD
:1032200000F0E6FB10B14FF0FF3070BD284670BDD6
:1032300047EBFFFF2DE9FF5F04468A461546DFF89E
:10324000AC80F8440027D8E900103E46CDE90010D4
:1032500011E05AF826106A4602A800F0CDFB411C86
:1032600007D02168890603D5E269391891420ED842
:10327000074406F101062068800602D5E069B842DD
:1032800005DDAE42E5DB5AF826000028E1D1A06951
:10329000C01BA0612046FFF735FBD8E90010CDE93F
:1032A0000010002016E05AF828106A4602A800F024
:1032B000A3FB8146401C0BD000250DF1080B05E057
:1032C000D4E901211BF8050090476D1C4D45F7D34B
:1032D00008F10100B0428046E5DB206A38442062F4
:1032E0002046FFF725FBBDE8FF9F00006A4900006C
:1032F0002DE9F0418046D21D22F007020026D2E9D6
:103300000002F52914A512D0002A06DA0023D0EB1A
:10331000030063EB020211A508E0D8F800108B0748
:1033200001D50FA502E0490701D50EA501261146DA
:10333000002408F1240704E000F0B8F830323A55D0
:10334000641C50EA0102F7D133462A462146404622
:10335000BDE8F041FFF7A9BC000000002D0000000F
:103360002B0000002000000030B4002100F12404F4
:103370000CE002F0070505F130054FEAD20242EAFF
:103380004372655401F101014FEAD30352EA030588
:10339000EFD10468002310A2250708D504F020040B
:1033A0000C4304D0C46901230CA2641EC46130BC68
:1033B000FFF77BBC10B5044621461068FFF76CFC94
:1033C00002462046BDE810400023CDE7D21D22F082
:1033D0000701D1E90023C7E700000000300000002A
:1033E000F0B40F460168090502D5234C7C4402E085
:1033F000214C7C440E34002100F124050BE002F046
:103400000F064FEA1212A65D42EA03724FEA131347
:103410006E5401F1010152EA0306F0D1224604681C
:103420000023240704D5702F05D009B111320223DF
:10343000F0BCFFF73ABC10320123F9E770B504463F
:103440000D4621461068FFF727FC02462946204614
:10345000BDE870400023C3E7D21D22F00703D3E983
:103460000023BDE70368126843F0200303600823CC
:10347000C3610023B4E70000C84700004FF00A0111
:10348000B0FBF1F202FB1101104670470048704793
:103490004C02002001487047704700BF6C020020BA
:1034A00001487047704700BF4C02002030B5B0F1B2
:1034B0000A024FEA900E71F100034EEA817EB0EBF2
:1034C0000E0061EB91014FEA101E4EEA017E10EBF7
:1034D0000E0041EB11114FEA102E4EEA016E10EB77
:1034E0000E0041EB11214FEA104E4EEA014E10EB57
:1034F0000E0041EB1141401841F100014FEAD000AC
:1035000040EA41704FEAD10110EB80054FEA810497
:1035100044EA907444EB01046D1944EB0404521B1B
:10352000A3414FF0000348BF0A3200D530BD401C14
:1035300041F1000130BD00001FB584B000200A9C9D
:1035400006AB04AA02A90094AFF3008018B1DDE92C
:10355000020108B010BD0348204000F0A1FA00208D
:103560000146F6E70000207C2DE9F04F04460D46A9
:10357000D21D22F0070089B0D0E9009748463946AD
:1035800001F015F90246F80F4FF02D0306D120681F
:103590002B23810702D4202101EAC0038DF82030BB
:1035A0000BB1012000E00020032A824601D0072A47
:1035B00004DB2946204600F051F93CE120688006F2
:1035C00001D40D2500E0E569C7F30A560D2D4ADA4E
:1035D00000214FEA175B084604F056F8002F00F46C
:1035E000400007DA00EB80004FF4400100EBD070A0
:1035F00001EA60004FEAA05CBCF1010F01DD4FF071
:10360000FF3CAB000021182B06D30A46A3F118009B
:103610004FF08051C14002E04FF48012DA400C3389
:10362000202B03D3203B09FA03F001E007FA03F053
:10363000BCF1000F4FF0004801DD18B913E012D1C2
:10364000404510D319EB010357419946BCF1000FD7
:1036500004D1404502D1974323EA0109BBEB175F30
:1036600001D006F101067B4878442168090500D4A1
:1036700013384FF0300C08AA0AF1010102F80AC011
:10368000037C002E0AF1020A5354694601DD4FF013
:10369000310C4FF001088DF800C002D0A6F2FF36C1
:1036A00003E059EA470200D06B4E002D02DC22688D
:1036B000120704D54FF002082E228DF80120C446CF
:1036C00000230BE0C7F303423F01825C5B1C6D1ECD
:1036D00001F80820052B08F1010801DA002DF1DCC2
:1036E00000220CE000EB1973521C1B786D1E082A97
:1036F00001F8083008F101084FEA091901DA002D34
:10370000F0DC2268920602D514E0A8F10108E04539
:1037100005DD01EB080212F8012C302AF5D0B8F1D2
:10372000000F07DD01EB080212F8012C2E2A01D14F
:10373000A8F10108002D05DD3E2201F808206D1ECC
:1037400008F10108407C002E01F8080008F101088A
:1037500006DA2D2001F80800764208F1010804E09D
:103760002B2001F8080008F101080A274FF47A73AA
:103770009E420ADB96FBF3F000F1300203FB106679
:1037800001F8082008F1010801E0642E0BDB642336
:1037900096FBF3F000F1300203FB106601F80820FD
:1037A00008F1010801E00A2E07DB96FBF7F000F1B3
:1037B000300001F8080008F1010896FBF7F007FB5C
:1037C000106000F1300001F80800A16908F101085B
:1037D00008EB050202EB0A00A1EB0000A0612068E3
:1037E000C00602D42046FFF78DF8216A08AE01EB2F
:1037F0000A00206204E0D4E9012116F8010B904789
:10380000BAF1010AF7D22068C00602D52046FFF7B8
:1038100079F86E4609E016F8010B3E280FD0D4E97E
:1038200001219047206A401C2062B8F10108F2D2C1
:103830002046FFF77DF809B00220BDE8F08F206A2E
:103840002844206203E0D4E90121302090476D1E16
:10385000EBD3F8E78745000002FCFFFF2DE9F041BC
:1038600004461F4603260168072A01F4006003DBB3
:1038700015A520B915A502E015A500B915A521F0DB
:1038800010002060A069C01EA0610FB1401EA061A1
:103890002046FFF737F84FB1D4E901213846904769
:1038A000206A401C2062C01C206206E0206AFAE701
:1038B000D4E9012115F8010B9047761EF8D2204675
:1038C000FFF736F8BDE8F0814E414E006E616E00A4
:1038D000494E4600696E660010B5436913B1AFF3F7
:1038E000008001E0FFF7A6FC012010BD126800F186
:1038F00024014262002282620122EDE711684FF04A
:10390000FF32E9E72DE9F047814616468AB037488D
:103910007844D0E9002380680092CDE90130334833
:1039200078440C38D0E9022300690392CDE90430D1
:1039300041F69B334FF0370001EB0302194492FB31
:10394000F0F591FBF0F2A5F1800500FB12141B3C91
:1039500002D56442012000E00020DFF890A08046FC
:103960000027FA44AAF1CE0A0DE0E00709D032465A
:10397000684607EB47010AEB810100F0E2FD8DE8A4
:10398000070064107F1C002CEFD1184F7F44BC3F10
:1039900017E0E80713D007EB04100DF1180A90E8C0
:1039A0000E00AAE80E00C068F04201D198190890F4
:1039B000324606A903A800F0C4FD03AB07C36D108F
:1039C000641C002DE5D132466946B8F1000F03A80A
:1039D00002D000F0A2FD01E000F0B3FDC9E9000152
:1039E000C9F808200AB0BDE8F08700007043000065
:1039F000C06800F08000704770B505460C4616465A
:103A000000F040F8036893F80101012806D0FF2C6C
:103A10000FD8185D68B101202C7070BDD3F8070174
:103A20003246214603442846BDE8704003F207139E
:103A300018474FF0FF3070BD7546FFF727FDAE46C3
:103A400005006946534620F00700854618B020B5AA
:103A5000FDF7C0FFBDE820404FF000064FF0000723
:103A60004FF000084FF0000B21F00701AC46ACE826
:103A7000C009ACE8C009ACE8C009ACE8C0098D4693
:103A80007047000010B5FFF705FD001D10BD00BF19
:103A9000F51600000446AFF300802046FCF7C5FB96
:103AA00010B500F04BF8BDE8104000F041B8000040
:103AB0004FF0013C50F8042B51F8043B9A4221D1BD
:103AC000A2EB0C03934313EACC1317D150F8042B49
:103AD00051F8043B9A4215D1A2EB0C03934313EA2D
:103AE000CC130BD150F8042B51F8043B9A4209D166
:103AF000A2EB0C03934313EACC13DBD04FF000008E
:103B0000704700BFD01A01BAB1FA81F101F0180173
:103B100022FA01F0CB40C1F12001DBB2C0B2C01AE1
:103B20002CFA01F3D11A914311EAC311E6D170477F
:103B3000002801D0FEF710B97047000010B5022828
:103B400003D0410103D50DA112E0002010BD0101F9
:103B500001D50FA10CE0C10001D511A108E0810041
:103B600001D512A104E0400001D513A100E000211D
:103B700015A000F039F8012010BD0000496E7661F3
:103B80006C6964204F7065726174696F6E0000002B
:103B9000446976696465204279205A65726F000035
:103BA0004F766572666C6F7700000000556E646535
:103BB00072666C6F77000000496E657861637420EF
:103BC000526573756C7400005349474650453A205E
:103BD00041726974686D65746963206578636570A6
:103BE00074696F6E3A20000070B505460C460A20D5
:103BF00000E06D1CFEF7B2F835B128780028F8D146
:103C000002E0641CFEF7AAF814B120780028F8D16D
:103C1000BDE870400A20FEF7A1B800002DE9F04F82
:103C20006D4CDFF8D081236885B098F80060009370
:103C30006A4B032E05468A461746D3F8009040F299
:103C400092800426052388F8006001930AF1004061
:103C500002F0DEFD0022624B01F088FD00F032FE32
:103C600001F0A6FA834602F0D3FD02460B4600207F
:103C70005C4902F08DFACDE90201284602F0C8FD48
:103C800002460B46DDE9020102F084F8CDE90201AB
:103C90000099584603F0C8F902F0BAFD02460B46F7
:103CA000DDE9020101F014FC01F082FA05464E4BF9
:103CB00050461D6002F0ACFD00224C4B01F056FD59
:103CC00000224B4B02F066F801F072FAE16883467D
:103CD000284603F037FB042E824613D1B9685846B4
:103CE00003F0A2F9514602F0E8FE00285FD00099E7
:103CF000284603F027FB0146484602F0C7FD8146EF
:103D0000364B18604946D7F80490284603F01AFB52
:103D1000494603F089F9B7F800A00646504603F07B
:103D2000B7F83146834602F0B3FE38B349465846E9
:103D300002F0D6FE0146284603F004FB274B18602C
:103D4000504603F0DDF8064630466368A2689DF8E9
:103D50000410A360009B256088F80010E260636097
:103D600005B0BDE8F08F731CDBB20193002E7FF429
:103D70006DAF01221C4B01921860C3E77F88384663
:103D800003F086F83146824602F097FE0028DBD029
:103D90004946504602F0A4FE0146284603F0D2FAF6
:103DA0000E4B1860384603F0ABF80646CCE7F968CE
:103DB000584603F039F9514602F06AFE0028A1D0B6
:103DC0004946284603F030F9009902F089FE034B7A
:103DD0008146186096E700BFC0020020BC020020A8
:103DE000000034400000F03FB002002000004E40D0
:103DF00000001040DC02002010B500F095F81449D6
:103E0000044602F045FEC8B91249204602F040FEC1
:103E100090B94FF07E51204602F03AFE80B920461C
:103E200002F0F6FC08A3D3E9002302F007FE002805
:103E300014BF0220012010BD042010BD052010BDBC
:103E4000032010BDAFF30080333333333333D33F1C
:103E500000002041000040402DE9F0410C4606469C
:103E600009684FF07E5002F03BFE054631464FF0A8
:103E70007E5002F035FE294600F06CFE254A21698D
:103E800013680546994222D9234901330860014647
:103E90001360284602F024FE0146A06802F006FEE8
:103EA00068B91E4A136823B91D4A18461370BDE845
:103EB000F0811B49013B13600878BDE8F0810120C7
:103EC0006168164A164B11601870BDE8F081E06811
:103ED00003F016F80146134802F002FE02F098FCC7
:103EE00000F0F0FC01F064F90B4E8046316803F0FD
:103EF0009BF8414607464FF07E5003F023FA2946CF
:103F000003F092F80146384602F0C0FC01463060EA
:103F1000BFE700BFD8020020AC020020B40200209E
:103F2000B8020020000080BF70B50E4601464FF079
:103F30007E50144602F0D4FD314605464FF07E50C7
:103F400002F0CEFD0146284603F0FCF900210546AB
:103F500002F0ACFD00B1002561684FF07E5002F028
:103F6000BFFD06462168284603F05EF83146BDE8ED
:103F7000704000F0EFBD00BF2DE9F8432C49054625
:103F800002F086FD00283CD1284602F041FC294C75
:103F90008046D4E9006732463B46894602F04EFD32
:103FA000E8B91DA3D3E900234046494601F0F2FEDB
:103FB0001BA3D3E90023804689463046394601F0E9
:103FC000E9FE02460B464046494601F081FA0646A4
:103FD0000F4601F0EDF8C4E90067BDE8F88330460C
:103FE00039460022002301F0D5FE42464B4601F03F
:103FF0006FFA06460F4601F0DBF8C4E90067BDE83A
:10400000F8830C4C08A7D7E900670948C4E90067A2
:10401000BDE8F883AFF30080DAFE3ADCB353E83E44
:10402000C5234CACE7FFEF3F0000000080843E4119
:104030000024F449D00200205FEA400C08BF91F050
:10404000000F4FEA8C234FEAC12243EA51514FEA55
:104050001C5018BF00F5F0404FEA300018BF41F087
:1040600000415FEA6C5C00F02980BCF1FF3F08BFB3
:1040700040F080407047130C06BF12044FF0100C44
:104080004FF0000C130E04BF12020CF1080C130FBA
:1040900004BF12010CF1040C930F04BF92000CF149
:1040A000020CD30F04BF52000CF1010C11464FF06B
:1040B0000002A0F11F00A0EB0C00704711F0004FB0
:1040C00008BF704731F000413FF4D5AF0B0C06BF7D
:1040D00009044FF0100C4FF0000C0B0E04BF090246
:1040E0000CF1080C0B0F04BF09010CF1040C8B0F31
:1040F00004BF89000CF1020CCB0F04BF49000CF186
:10410000010CCCF12003A0EB0C0022FA03F302FA1D
:104110000CF241EA030100F10100704720F07F4CEE
:1041200080EA030023F07F47ACEB070303F57C53E1
:1041300000F0004003F1FF032DE980494FEA154BE1
:1041400009B44FEA144325EA0B4E24EA03480FF260
:10415000042606EB132749083E785FEA320203FB88
:104160000667C7F5000707FB06F64FEA54374FEA24
:10417000D64606F1020607FB066CCCF1005C4FEA5E
:104180001C472CEA074C07FB06F40CFB06F504EB76
:1041900015464FEA961634BF00204FF000404FEA14
:1041A000D13706FB07FC4FEA1C4C0CFB0BF7D21B6C
:1041B00003FB0CF761EB07010CFB0EF7B0EB0740BC
:1041C00072EB17420CFB08F734BFA2EB0742B2EBCD
:1041D000074261EB17414FEA0C444FEA910706FB97
:1041E00007FC4FEA1C4C0CFB0BF7B0EBC74072EB23
:1041F000573203FB0CF734BFA2EBC742B2EBC74206
:1042000061EB57310CFB0EF7B0EBC70072EB577246
:104210000CFB08F734BFA2EBC702B2EBC70261EB9D
:104220005771039F4FEA816141EA921104EBCC047C
:104230004FEAD1374FEA826206FB07FC42EA90124E
:104240004FEA80604FEA1C4C0CFB0BF7D21B03FBC0
:104250000CF761EB07010CFB0EF7B0EB074072EBBC
:1042600017420CFB08F734BFA2EB0742B2EB074240
:1042700061EB17414FEA8C554FEA910704EB9C2400
:1042800006FB07FC4FEA1C4C0CFB0BF7B0EBC740DE
:1042900072EB573203FB0CF734BFA2EBC742B2EB11
:1042A000C74261EB57310CFB0EF7B0EBC70072EB66
:1042B00057720CFB08F734BFA2EBC702B2EBC70280
:1042C00061EB577115EB4C254FEA816141EA921180
:1042D0004FEA82624FEAD13742EA901206FB07FCAE
:1042E00044F100044FEA80604FEA1C4C0CFB0BF7D2
:1042F000D21B03FB0CF761EB07010CFB0EF7B0EBD5
:10430000074072EB17420CFB08F734BFA2EB0742E1
:10431000B2EB074261EB174115EB1C154FEA8131F7
:1043200041EA92414FEA823242EA90424FEA8030BB
:104330004FEA0C7644F1000448EA03434EEA0B4886
:104340004FF0000EB2EB080C71EB030724BF62467E
:1043500039464EEB0E0E4FF0000B0018524149410A
:104360004BEB0B0BB2EB080C71EB03077BF1000B73
:1043700024BF624639464EEB0E0E4FF0000B00187C
:10438000524149414BEB0B0BB2EB080C71EB0307AD
:104390007BF1000B24BF624639464EEB0E0E51EA0C
:1043A000020718BF46F0010616EB0E7655F1000223
:1043B00054F1000103D5BDE88901BDE80088BDE8DE
:1043C0008901BDE80048B619524141EB0101A3F152
:1043D0000103704780807F7E7D7C7B7A7978777659
:1043E00076757473727171706F6E6E6D6C6C6B6AD2
:1043F0006A69686867666665646463636261616070
:10440000605F5F5E5E5D5D5C5C5B5B5A5A595958EC
:104410005857575656555555545453535252525156
:10442000515050504F4F4F4E4E4D4D4D4C4C4C4BAC
:104430004B4B4A4A4A4949494848484747474746F3
:10444000464645454544444444434343434242422F
:1044500042414141002B26D4770021D01CB54FEAC0
:10446000370703B44FF010004FF0100103F00CF9C0
:104470000FBCBDE810400BF1010BBBF1010F08BFF1
:104480005FEA170722BF12F1010211F101014FF09B
:10449000004143F1000300F0004043EA0000704790
:1044A000F9D35708DAE746EA064613F1400F4FEA18
:1044B00016461FDD13F1200FDFBF16430A46002109
:1044C00020335B42C8D0C3F1200746EA064602FA11
:1044D00007F74FEA164646EA0706C3F1200722FA15
:1044E00003F201FA07F721FA03F14FF0000342EA61
:1044F0000702B1E746EA020646EA06464FEA1646D2
:1045000046EA0106BCBF46EA0646360C4FF00003F9
:104510004FF000024FF000019EE72DE9C04893469E
:1045200030B491E8380007C831EA400C48BF34EA9B
:10453000430C03D5FFF7F2FDFFF78CFFF0BCBDE89D
:1045400000882DE9C048934630B491E8380007C888
:1045500010F0804F08BF13F0804F03D100F005F832
:10456000FFF778FFF0BCBDE8008820F07F4780EAC5
:10457000030023F07F4C07EB0C03A3F57C5300F002
:104580000040A3F1FE0392F0000F00F0B38095F01D
:10459000000F00F077802DE901494FEA11404FEA02
:1045A000144621EA004800FB06FC24EA064708FB03
:1045B00006F607FB08F800FB07F718EB06484CEB7C
:1045C000164C4FEA124B18EB07484FEA15464CEBD6
:1045D000174022EA0B4E0BFB06FC25EA06470EFBB2
:1045E00006F607FB0EFE0BFB07F71EEB064E4CEB29
:1045F000164C4FF000061EEB074E4CEB174B18EB1A
:104600000B0840F1000018EB0E0B58EB000840F1CE
:1046100000008F1A4FF000013CBFC943661B14BF56
:10462000B5EB040C00213CBFC943F61B4FEA17440D
:104630004EEA8E0E27EA04454FEA1C4704FB076248
:104640002CEA074C05FB07F70CFB05F604FB0CFCFA
:1046500016EB074642EB174216EB0C4642EB1C42A8
:104660001BEB060658EB0202414146EA9E0601D5C5
:10467000BDE80189B619524141EB0101A3F10103E3
:10468000BDE801894FEA14454FEA114724EA05467F
:1046900021EA074C05FB07F406FB07F70CFB06F1C4
:1046A00005FB0CFC11EB074144EB17444FEA1247A2
:1046B00011EB0C4144EB1C4422EA074C05FB07F2CA
:1046C00006FB07F70CFB06F605FB0CFC16EB074692
:1046D00042EB174216EB0C4642EB1C456A1854F1AC
:1046E000000148BF7047B619524141EB0101A3F1E7
:1046F0000103704795F0000F37D04FEA11424FEA9F
:10470000144721EA024624EA074C02FB07F106FBA4
:1047100007F70CFB06F402FB0CFC14EB074441EB1F
:1047200017414FEA154714EB0C4441EB1C4125EAB5
:10473000074C02FB07F506FB07F70CFB06F602FB2E
:104740000CFC16EB074645EB174516EB0C4645EB04
:104750001C42121951F1000148BF7047B61952416D
:1047600041EB0101A3F1010370474FEA14454FEA01
:10477000114724EA054621EA074C05FB07F106FB31
:1047800007F70CFB06F24FF0000605FB0CFC12EBE2
:10479000074241EB174112EB0C4251EB1C4148BF61
:1047A0007047921841EB0101A3F1010370474900E2
:1047B00050EAC12018BF04204A0D18BF40F0010084
:1047C00040F2FF72B2EB515F08BF40F002000128D7
:1047D00008BF052070474100080218BF04200A0ED8
:1047E00018BF40F001004FF07F4232EA010108BFDC
:1047F00040F00200012808BF052070472DE9F04174
:104800004F1E00EBC7010446D1E9000115461E46C4
:1048100037F006020DD02A46334601F0BBFA7F1E60
:1048200004EBC703D3E9002300F052FE37F0060281
:10483000F1D1022F25D0042F13D0062F18BFBDE8C9
:10484000F0812A46334601F0A5FAD4E90A2300F0A4
:104850003FFE2A46334601F09DFAD4E9082300F0D2
:1048600037FE2A46334601F095FAD4E9062300F0D4
:104870002FFE2A46334601F08DFAD4E9042300F0D6
:1048800027FE2A46334601F085FAD4E9022300F0D8
:104890001FFE2A46334601F07DFAD4E90023BDE825
:1048A000F04100F015BE0000024A0020110702F09E
:1048B00061BF000001FDFFFF6FF05E01080702F01D
:1048C000E5BF00002DE9F04D8C4BCE0F21F00047E5
:1048D00084B005460C469F4236D38948874212D39E
:1048E000C7F31300284306D004B02846BDE8F04DB6
:1048F000012202F03FBF002E1ABF002001462846C9
:1049000004B0BDE8F08D7F4A284601F0E8FB0CD2E8
:104910000220FEF7B2F904B040F20132BDE8F04DDA
:1049200000204FF0E04102F025BF774A774B284640
:10493000214601F0F3F907D20220FEF79EF904B0F8
:10494000BDE8F04DFFF7B0BF7148874248D97148C4
:10495000874215D27048784400EBC6002146D0E962
:104960000023284601F014FCCDE900016B4878448F
:1049700000EBC600D0E900ABC6F10100861B26E0C3
:10498000674A684B2846214601F004FA664A7A4491
:1049900002EBC603D3E9002300F09AFD01F0E6F82C
:1049A000064601F047F907468846604A604B01F029
:1049B000F1F92A46234601F0C3FBCDE900015D4A27
:1049C0005D4B3846414601F0E5F982468B46DDE90C
:1049D000000152465B4601F0DBFB05460C4618E041
:1049E0005648874214D2564A564B2846214600F074
:1049F0006FFD554E0022334601F071FB08D204B022
:104A0000334628462146BDE8F04D002200F060BD47
:104A100000262A4623462846214601F0BBF9804657
:104A200002464A480F460B4605217844FFF7E6FE4A
:104A300042463B4601F0AEF92A46234601F080FB90
:104A400007468846E6B302460B4600204FF08041F9
:104A500001F09EFBCDE902013A4643462846214635
:104A600001F098F9DDE9022300F080FE52465B4632
:104A700001F066FBDDE9002301F08AFB0022324BE6
:104A800001F05EFB6FF47F729642A2BF01EB06510C
:104A900004B0BDE8F08D4FF07A5202EB065211449B
:104AA0002B4A02F067FE04460D46FFF780FE0428FD
:104AB00008BFFFF7F9FE204604B02946BDE8F08D97
:104AC000FFE700224FF0804301F062FB82460E4672
:104AD0003A4643462846214601F05CF952463346A1
:104AE00000F044FE2A46234601F052FB04B00022A7
:104AF000BDE8F04D144B01F023BB0000422E864070
:104B00000000F07FEF39FAFE51302DD5104987C0F3
:104B1000422ED63FB2A2F03FCE300000C630000099
:104B2000FE822B654715F73F863000000000E0FE4F
:104B3000422EE63F763C7935EF39EA3D0000303EC3
:104B40009C7500883CE4377E0000F03F1A3000007E
:104B500018FCFFFF2DE9F04D0E46A0F50001804640
:104B600004464FF0007084B04FF07E574FF0000BBA
:104B7000354600EB46004FF07F4AB1F1FE4F03D2BD
:104B8000B0F1804F7DD242E0B0F1804F3FD300BF03
:104B900004F1FF40B0F1FE4F1FD200BF28F00048E3
:104BA000C5F3C75044467F2809DB972869DAC0F16E
:104BB0009600012101FA00F0411E294209D001208E
:104BC000FEF75BF804B00021BDE8F04D084601F0A7
:104BD00087BF284218BFFF4FD1E0600000281CBFEC
:104BE0004FF08070B0EB440F0BD91B21404602F010
:104BF0004DFE804604466FF01A0B10F0004FCDD1E9
:104C0000BDE0A4F50000B0F1FE4F3AD319E0B0F1D9
:104C1000007F10D30021284602F070F805D1600013
:104C2000B6D0BAEB440FB3D9A6E005F0004040F08F
:104C3000FC552E46ACE7B0F1807F38BFA5F50006E5
:104C4000A6D324F000416FF0FF42E34B881898424E
:104C50000FD325F00040024493420AD8B4F17E5F9E
:104C60007ED06A007CD0B1F1FF4F02D8B0F1FF4F87
:104C700006D904B031464046BDE8F04D01F006BE0D
:104C800000E07CE0B4F1FF4F0FD0C5F3C7507F28A0
:104C900009DB972811DAC0F19600012101FA00F032
:104CA000411E294205D0002008E015F0004F5ED1DA
:104CB00027E0284218BF012000D1022014F5000F80
:104CC00013D01CB3B4F1004F26D014F1814F53D050
:104CD0004FF0FE40B0EB440F94BF012000200121B3
:104CE00001EBE571884242D10BE015F0004F02D094
:104CF00001283ED03BE0012802BFB84804B0BDE81F
:104D0000F08D4FF0FF4004B0BDE8F08D15F000408D
:104D10000ED104B0BDE8F08DB5F1FF4F27D015F5E9
:104D2000000F05D015F0004F18D008B101280AD0A7
:104D30000220FDF7A2FF04B00021BDE8F04D4FF0C6
:104D40007E5001F0CDBE0220FDF797FF04B0414632
:104D5000BDE8F04D4FF07E5001F0C2BE002800E0EB
:104D60000AE004BF04B0BDE8F08D012801D00020A6
:104D7000CFE74FF00040CCE74FF07E50C9E79848AE
:104D80002044B0F5005F44D8404601F041FD0022C8
:104D9000944B01F0FDF900F00BFA04466FF00101AD
:104DA00002F074FD904902F0AFFA214602F03CF99E
:104DB0004FF07C5102F0A8FA05462146204602F049
:104DC00033F980F00040294602F02EF980468749E9
:104DD000204602F029F905468549404602F024F9AB
:104DE00080468449204602F01FF9414601F04EFDFD
:104DF00004460146284601F049FD00F5006B6FF3BB
:104E00000B0B5946284602F09DFA214601F03EFD63
:104E1000D5E004F58020C00C00F00F05C0F30710AA
:104E20007F38A4EBC05183442846029102F030F849
:104E30006FF0030102F02AFD4FF07E5101F026FDD4
:104E400001460090029802F07DFA019000990298C4
:104E500001F01CFD00F5006804466FF30B084146A5
:104E6000009802F06FFA029901F010FD02902146BD
:104E70004FF07E5001F034FE01460090019802F0A0
:104E8000D3F800F500646FF30B042046029902F09A
:104E9000CBF802904146204602F0C6F8019902F094
:104EA00033FA029902F04EFA009902F0BDF88046FA
:104EB0000146204601F0EAFC014602F0B5F84E49F1
:104EC000009002F0B1F8484901F0E0FC009902F0CE
:104ED000ABF801900021204602F0D8FC009041463A
:104EE000204601F0D3FC019902F09EF8044600210F
:104EF000404602F0CBFC214601F0C8FC804601464A
:104F0000009801F0C3FC00F500646FF30B04214628
:104F1000009802F017FA414601F0B8FC8046374984
:104F2000204602F081F800903549404602F07CF8B6
:104F300080463449204602F077F8414601F0A6FC4D
:104F400080460146009801F0A1FC00F500646FF373
:104F50000B042146009802F0F5F9414601F096FC59
:104F600080462948784450F8351000EBC500009180
:104F700045684FEA0B1001F08BFF0190294640462F
:104F800001F084FC214601F081FC009901F07EFCD7
:104F9000019901F07BFC00F5006B6FF30B0B584699
:104FA000019902F0CFF9009902F0CCF9214602F004
:104FB000C9F9294602F0C6F9414602F0A5F906F5FD
:104FC000006405466FF30B042146304602F0BAF93F
:104FD00080461BE0000080BFFFFF3F00000080FF15
:104FE000001080C00000F03FABAAAA3E00B0B8415C
:104FF0003BAAB841D49A38BB7EE24C3E00B038425E
:105000003BAA3842D49AB8BB082B00002146584628
:1050100002F00AF806464146204601F037FC2946D0
:1050200002F002F804464146584601F0FDFF2146D1
:1050300001F02CFC05460146304601F027FC00F546
:1050400000646FF30B042146304602F07BF92946D9
:1050500001F01CFC80460146204601F017FC01F0DF
:105060007DFE0646051101F013FF214602F04CF9C2
:10507000414601F00BFC0446314901F0D5FF3149AE
:1050800001F004FC214601F0CFFF2F4901F0FEFBA7
:10509000214601F0C9FF01462C4806F00F04784470
:1050A00050F8240001F0C0FF2949794451F8241038
:1050B00001F0ECFB2749794451F8241001F0E6FB9C
:1050C00005F17D01FC2908D2294602F0DFFB04B07E
:1050D0003946BDE8F04D01F0A7BF05F1BF01B1F5BC
:1050E000BF7F14D8294602F0D1FB394601F09CFF5E
:1050F0000446BAEB400F16D060000AD02046FFF7F6
:105100006AFB042808BFFFF7D7FB204601E6002D05
:1051100009DA0220FDF7B1FDFFF7CEFB0146384664
:1051200061F31E00F5E50220FDF7A7FD61214FF0B8
:10513000E04002F0ABFB0146384661F31E00E8E5B3
:10514000FC596337C9FF753A1872313DCE2A000009
:10515000822A0000362A000010B500290AD00878FB
:10516000002807D005487844FEF7A2FC002801D0AB
:10517000002010BD0248784410BD0000562B0000EE
:105180004E2B000010B500290AD00878002807D05F
:1051900005487844FEF78CFC002801D0002010BDA3
:1051A0000248784410BD0000462B00003E2B000052
:1051B00021F00042A2F16052B2F5801F01F00043DD
:1051C00028BFD2F17E6C5AD903B42DE90C50FDF7FB
:1051D00049FDBDE80C50844603BCDCF800C01CF45B
:1051E000400F14D15FEAC00C43EAC20202EB5070D8
:1051F00008BF70475FEA4C0C40F10000DFF8C8C2FE
:1052000041F0028228BF20F0010001F0FDB9C30087
:1052100001F0004343EAC20202EB507008BF70473E
:105220001B4248BF4FEA4C0C1CF4000F08BF401C47
:10523000DFF894C201F0E8B9C30001F0004343EA8B
:10524000C20202EB507204BF104670471B4248BFB7
:105250004FEA4C0C1CF4000FDFF86CC218BF10466C
:1052600041F0D28108BF521C12F4000F08BF104653
:1052700001F0CA8121F0004201F0004339E050EA18
:10528000410C04BF084670475FEA125CBCF1FE0F98
:1052900027D103B42DE90C50FDF7E4FCBDE80C5018
:1052A000844603BCDCF800C01CF4400FC4D15FEAA4
:1052B000C00C89D05FEA001C4FEAC20C4CEB507C5A
:1052C00004BFC2002CEAD27C1CF4000F04BF4CEADD
:1052D0000300DFF8F4C101F0978121F00042A2F150
:1052E0006052B2F5801F4FEA410C32DB1CF5001F03
:1052F0001FD203B42DE90C50FDF7B4FCBDE80C50EF
:10530000844603BCDCF800C01CF4806F06D02CF08F
:10531000005C4CF0805CA1F1406132E04FF07F40D6
:10532000DFF8A8C143EA500001F06EB9084601F069
:10533000E6BF70B500F014FE000000B9880000045C
:10534000FFF7F4BF21F0704243EA507040EAC20018
:10535000704703B42DE90C50FDF784FCBDE80C50F8
:10536000844603BCDCF800C02CF0805C4CF0005C90
:105370001CF4006F25D04B00B3F5001F51D301F191
:1053800040611CF4400F40F087800CF0405CC3008B
:105390004CF0880C11D05CF0404C10F0805F0CD0C9
:1053A000034610F1005041F10001020108BF20F056
:1053B0000050834218BF2CF0004C00F0604002F017
:1053C000C1BA1CF4400F1AD01B4248BF4FEA4C0C24
:1053D0001CF4000F13D112F1406248BF22F07F424B
:1053E0004FEAC00CBCF1010F43EAC20242EB50701D
:1053F0004FF0880228BF42F0804202F094B812F1C8
:10540000406248BF22F07F425FEAC00C43EAC2021A
:1054100042EA50704FF0880218BF42F0404202F05A
:1054200082B801F0004321F00041094214D0B1FAE2
:1054300081FCACF10B0CCCF1200201FA0CF120FA4A
:1054400002F241EA02014FEA0C5200FA0CF0A1EB21
:10545000020181EA03010FE0B0FA80F200FA02F0E3
:1054600002F115024FEAD0214FEA0252A1EB0201EC
:105470004FEA405081EA030103B42DE90C50FDF7D7
:10548000F1FBBDE80C50844603BCDCF800C02CF0F6
:10549000805C4CF0005C72E762460CF0405CC3003C
:1054A0004CF0880C89D05CF0404C094248BF520057
:1054B00012F4000F81D110F1005041F100012CF0E5
:1054C000004C7FF47AAF00BF8800004088000010D5
:1054D00010B5DFF85CC211F5801E13F580141CEACC
:1054E0004E0F18BF1CEA440F00F0D68091EA030F5C
:1054F00048BF83F0004300F16086841A71EB030E0D
:1055000005D2121943EB0E03001B61EB0E014FEAAB
:105510001154A4EB135E23EA6C0321EA045143F413
:105520008013DEF1200C5CD322FA0EFC10EB0C0091
:1055300023FA0EFC41EB0C01CEF1200C03FA0CFC1B
:1055400010EB0C0051F10001B1F5801FCEF1200CE1
:105550005CD201EB0451BDE8104012FA0CF208BF16
:10556000704703B42DE90C50FDF77CFBBDE80C50EF
:10557000844603BCDCF800C01CF4400F1ED14FF081
:10558000110C92F0000F4CF0804C41F13D80401C1A
:1055900038BF5FEA420241F03780002814BF20F094
:1055A000010041F100014FEA410313F5001F24BF40
:1055B0004CF0805CA1F1C04101F026B811F0004F21
:1055C00054BF1CF4000F1CF4800F4FF0110C4CF072
:1055D000804C41F01980401CC1F0168041F100015F
:1055E000E1E7012A43EB0302AEF1200EDEF11F0CCE
:1055F00032BF4FF0000C23FA0EF310EB030041EB27
:105600000451B4EB115FA6D0A1EB045101F5801158
:10561000490801EB0451BDE810405FEA300002FA8E
:105620000CF25FEA32021AD003B42DE90C50FDF7F8
:1056300019FBBDE80C50844603BCDCF800C01CF428
:10564000400F18D14FF0110C92F0000F4CF0804C2D
:10565000A9D5401C38BF5FEA4202A4D19DE74FEABA
:10566000410313F5001F38BF7047DFF8C8C0A1F130
:10567000C04100F0C9BF11F0004F54BF1CF4000F2F
:105680001CF4800F4FF0110C4CF0804C8BD1401C5F
:1056900089D341F1000186E74CF4001C3CEA410447
:1056A00018BF3CEA430439D091EA030F48BF83F0A6
:1056B000004300F18F86841A71EB030E05D2121994
:1056C00043EB0E03001B61EB0E0152EA430C4FEA61
:1056D0001154A4EB135E13D05FEA445C21EA045139
:1056E0001CBF23F00043AEF1010E7FF41AAFBDE8FA
:1056F00010404FF0110C801841EB030100F051BE37
:105700005FEA445CBDE8104018BF704750EA410CA6
:1057100008BF70474FF0110C00F043BEBDE81040C9
:1057200070B500F01DFC00BF64FBBE3E110000041C
:105730000000C0FF1100001011F4002F08BF4CF44E
:10574000804C00F061870CF04F02482A41F0B88786
:1057500000F05ABF491058BFC1F140415B1058BF1B
:10576000C3F140438B42EFF3008070472DE9C04105
:1057700030B4DFF874C33CEA111418BF3CEA1314C8
:1057800000F0548181EA03051CEA111444EAD5743F
:1057900018BF1CEA131500F02681A4EB05044FF096
:1057A000004545EAC12145EAC32341EA505143EA95
:1057B000525304F17F74994204F500344FEAC0203B
:1057C0004FEAC22208BF904200F0D9804FEA136529
:1057D0000FF21426765D4FEA134506FB05F7C7F175
:1057E000807706FB07F74FEAD737A7FB03687642B7
:1057F000C8F58038A7FB06CE38BFA8F1010807FB23
:1058000008E64FF0000EA6FB028CE6FB03CEDCF1AF
:10581000000CCEF1004E38BFAEF1010EA6FB0C58C5
:105820004FF000074FF00005E6FB0E87A1FB08C60E
:10583000A0FB07CE16EB0E0645F10005E1FB076560
:1058400015F1E04E7EBFA4F580345FEA46066D4157
:1058500016F1800703B445F100054FEA172747EA20
:1058600005672DE90C504FEA1525FDF7FBF9BDE85A
:105870000C50844603BCDCF800C01CF4400F36D149
:105880004FEA4666A6F15E46B6F1085F2FD9B4F13D
:10589000FE6F2CD8384624F0010C05EBC471BCF126
:1058A000FE6F01EB0C11DFF844C202D8F0BCBDE87A
:1058B000004140F2A98624425CBF01F5801E9EEAA9
:1058C000C47F02D4F0BCBDE8004140F19D86244273
:1058D00077D4DFF81CC256EA080EA1F1C04118BF08
:1058E0004CF0804CF0BCBDE8004100F08DBE4FEAAA
:1058F000D22242EA43524FEAD323A7FB02864FEA61
:10590000D02040EA415007FB03661EEA0E0F4FEA23
:10591000D12105FB026658BFA6EB0056B6EB005638
:105920004FEA520E4EEAC37E18EB0E0E56EB530EA4
:1059300005D518EB02085E417F1C55F1000556EABB
:10594000080E24D01CF4400FA4D014F0010F18BF8F
:105950004FEA4C0C1CF4000F08D036429AD4B8EB36
:1059600002089E417F1E75F1000593E7364291D5EE
:1059700018EB02085E417F1C55F100058AE74FF4E1
:1059800080154FF000074FF000064FF0000824F09C
:10599000010C384605EBC471BCF1FE6F01EB0C1134
:1059A00002D8F0BCBDE800811CEA0C0F5CBF01F519
:1059B000801E9EEAC47F02D4F0BCBDE80081244270
:1059C00087D556EA080C01F1C0411CBF06F0004C17
:1059D0004CF0804C4CF0005CF0BC4CF0140CBDE87A
:1059E000004100F035BD50EA410E0CEA13150BD012
:1059F00052EA430E13D000F034FB641B86EA4606DD
:105A0000240444EAD674CAE652EA430E00F0258024
:105A1000F0BC81EA030101F00041BDE80081F0BC67
:105A2000BDE80041DFF8CCC000F0EEBDF0BCBDE841
:105A3000004170B500F094FA097EFC3E14000004A9
:105A400000F007B881EA03014FF0000001F00041C7
:105A5000704781EA030100F03CBBF0BCBDE80041A7
:105A60005FF828C000F0D0BDFFFDFBF9F7F5F4F2B8
:105A7000F0EEEDEBE9E8E6E4E3E1E0DEDDDBDAD8E9
:105A8000D7D5D4D3D1D0CFCDCCCBCAC8C7C6C5C447
:105A9000C2C1C0BFBEBDBCBBBAB9B8B7B6B5B4B35E
:105AA000B2B1B0AFAEADACABAAA9A8A8A7A6A5A449
:105AB000A3A3A2A1A09F9F9E9D9C9C9B9A9999980D
:105AC0009797969595949393929191908F8F8E8EB0
:105AD0008D8C8C8B8B8A898988888787868585843D
